:020000040000FA
:040000008031202803
:100008007E1480312000911C0A280B280E2881318B
:10001800032180312000911E1228132816288331CD
:10002800002380312000111C1A281B281E28823129
:10003800F32280317E10090080312228FC01200043
:10004800A001A101A201A301A401A501A601A70184
:10005800A801A901AA01AB017E10200081318529E0
:100068002000281D382839283E280130A0070030F4
:10007800A13D4028A001A101220A031D44284528CA
:100088005028281C4828492850280F303D00C40013
:100098003C30C300311756280B303D00C400B8303F
:1000A800C300311720002608823182228031F800EF
:1000B8000430F836890B5D287808F90079082000A3
:1000C800A300A31D682869287B2823090739F8009D
:1000D800F901F835F90D3D0023087807FA002408DE
:1000E800793DFB007A08A3007B08A4008B2823082D
:1000F800F800F901F835F90D78083D002302FA00F7
:100108007908243BFB007A08A3007B08A4000F3081
:100118002402A13003192302031C93289428982849
:100128000F30A400A030A30007302402D0300319F8
:1001380023020318A028A128A5280730A400D0303E
:10014800A300111720002508823182228031F8008F
:100158000430F836890BAD287808F90079082000B2
:10016800A400A41DB828B928CB2824090739F80009
:10017800F901F835F90D3E0023087807FA0024083C
:10018800793DFB007A08A3007B08A400DB2824083B
:10019800F800F901F835F90D78083E002302FA0055
:1001A8007908243BFB007A08A3007B08A4000F30E1
:1001B8002402A13003192302031CE328E428E828B9
:1001C8000F30A400A030A30007302402D030031958
:1001D80023020318F028F128F5280730A400D030AE
:1001E800A30011172000A81DFA28FB280229FF30B8
:1001F800F8007808AA001C15A001A10108000B301E
:100208003D002402B93003192302031C0C290D29CF
:1002180011290A30A3020030A43B0B302402B83065
:1002280003192302031819291A291E290A30A307BA
:100238000030A43D0B303E002402B93003192302DC
:10024800031C272928292C290A30A3020030A43BA3
:100258000B302402B8300319230203183429352936
:1002680039290A30A3070030A43D0B303D00240291
:10027800AF3003192302031C4229432950290B30AC
:100288002402C2300319230203184B294C29502990
:100298000B30A400B830A3000B303E002402AF306E
:1002A80003192302031C59295A2967290B302402F0
:1002B800C2300319230203186229632967290B3006
:1002C800A400B830A3003D0011173E001117B83044
:1002D8003D0023060B3003192406031D74297529D4
:1002E8008229B8303E0023060B3003192406031D6B
:1002F8007E297F2982292000AA011C112000911043
:10030800080083310C2381318231E6228131823128
:10031800B52281318131F12181318231D822813177
:100328008231C722813183311423813120002B1C73
:100338009E299F29A7298231452281310130200039
:10034800AC002C08AB06AB1CAA29AB29B8292A0893
:10035800031DAF29B029B8298031342081310230FA
:100368002000AC002C08AB062108803AAC00803095
:100378002C02031DC12901302002031CC429C529F0
:10038800CC290F303D00E4003C30E3005117D2295E
:100398000B303D00E400B830E3005117200021087D
:1003A800803AAC0081302C02031DDC2991302002F8
:1003B800031CDF29E029E629FF302000AC002C08C7
:1003C800A2009A292000A2010B303D00C400B830D9
:1003D800C30031179A2980312028FC303D0094054C
:1003E800303094049C30A6004030A5000B30A400A7
:1003F800B830A3002E14161015141C141A141B144C
:10040800C0309100FC303E009405303094049C309C
:10041800A6004030A5000B30A400B830A3002E146D
:10042800161015141C141A141B14C0309100FC303B
:100438003D00D4053030D4049C30E6004030E5005F
:100448000B30E400B830E3006E14561055145C14F9
:100458005A145B14C030D100FC30B4053030B404F9
:100468009C30C6004030C5000B30C400B830C30013
:100478004E14361035143C143A143B14C030B100F5
:100488000800672AFE307C06031D4B2A4C2A812A65
:100498000130F1007108A907812A7C08F100710870
:1004A800A8004C2A7C08F1007108A7004C2A7C0897
:1004B800F1007108A6004C2A7C08F1007108A5001B
:1004C800A901AB14812A20002908F100F201720861
:1004D800003A0319702A812A7108003A0319462A3A
:1004E800013A0319512A033A0319562A013A031902
:1004F8005B2A073A0319602A812A0800F3000830AA
:10050800F1007108F600F501F701AD2A0130F1009C
:10051800770A8F2AF135890B8E2A71087305F20044
:100528007208F400740803199A2A9B2AA92A013030
:10053800F10077087602FF3E890AA32AF135890B74
:10054800A22A7108F2007208F5040130F10071085E
:10055800F70776087702031CB22AB32A8A2A750895
:10056800080022001D159D1423001F129F159D17BA
:100578001D169E121E121E1522309B002100911678
:1005880020009112080020001C08873948389C0078
:100598001C08FC3902389C00FA309B00911021009D
:1005A800911420001C1108003F30200098051808FD
:1005B800CF39103898009913210011142000111018
:1005C8001814080022008D018E01C03021008D0012
:1005D80023008D0121008E0123008E0108002000D8
:1005E8001110FF3022008D002000A001A101A801F8
:1005F800A701A601A501080023001908F00070084A
:10060800FC0020002B149601970122008D010800A0
:10061800210099151916991619171910991008001B
:060628000B178B17080000
:020000040001F9
:04000E00E419FF3EB4
:00000001FF
